{"abi":[{"type":"fallback","stateMutability":"payable"},{"type":"receive","stateMutability":"payable"},{"type":"function","name":"admin","inputs":[],"outputs":[{"name":"","type":"address","internalType":"address"}],"stateMutability":"view"},{"type":"function","name":"hookType","inputs":[],"outputs":[{"name":"","type":"uint8","internalType":"uint8"}],"stateMutability":"pure"},{"type":"function","name":"owner","inputs":[],"outputs":[{"name":"","type":"address","internalType":"address"}],"stateMutability":"view"},{"type":"function","name":"postDispatch","inputs":[{"name":"metadata","type":"bytes","internalType":"bytes"},{"name":"message","type":"bytes","internalType":"bytes"}],"outputs":[],"stateMutability":"payable"},{"type":"function","name":"quoteDispatch","inputs":[{"name":"","type":"bytes","internalType":"bytes"},{"name":"","type":"bytes","internalType":"bytes"}],"outputs":[{"name":"","type":"uint256","internalType":"uint256"}],"stateMutability":"view"},{"type":"function","name":"renounceOwnership","inputs":[],"outputs":[],"stateMutability":"nonpayable"},{"type":"function","name":"supportsMetadata","inputs":[{"name":"","type":"bytes","internalType":"bytes"}],"outputs":[{"name":"","type":"bool","internalType":"bool"}],"stateMutability":"pure"},{"type":"function","name":"transferOwnership","inputs":[{"name":"newOwner","type":"address","internalType":"address"}],"outputs":[],"stateMutability":"nonpayable"},{"type":"function","name":"withdrawFees","inputs":[{"name":"feeRecipient","type":"address","internalType":"address"}],"outputs":[],"stateMutability":"nonpayable"},{"type":"event","name":"DispatchFeePaid","inputs":[{"name":"requiredFee","type":"uint256","indexed":false,"internalType":"uint256"},{"name":"actualFee","type":"uint256","indexed":false,"internalType":"uint256"}],"anonymous":false},{"type":"event","name":"OwnershipTransferred","inputs":[{"name":"previousOwner","type":"address","indexed":true,"internalType":"address"},{"name":"newOwner","type":"address","indexed":true,"internalType":"address"}],"anonymous":false}],"bytecode":{"object":"0x6080604052348015600e575f80fd5b50601633601a565b6069565b5f80546001600160a01b038381166001600160a01b0319831681178455604051919092169283917f8be0079c531659141344cd1fd0a4f28419497f9722a3daafe3b4186f6b6457e09190a35050565b61060f806100765f395ff3fe608060405260043610610083575f3560e01c8063aaccd23011610055578063aaccd23014610107578063e445e7dd14610134578063e5320bb91461014f578063f2fde38b1461017e578063f851a4401461019d57005b8063086011b91461008c578063164e68de1461009f578063715018a6146100be5780638da5cb5b146100d257005b3661008a57005b005b61008a61009a3660046104de565b6101bc565b3480156100aa575f80fd5b5061008a6100b936600461054a565b610258565b3480156100c9575f80fd5b5061008a610341565b3480156100dd575f80fd5b505f546001600160a01b03165b6040516001600160a01b0390911681526020015b60405180910390f35b348015610112575f80fd5b506101266101213660046104de565b610354565b6040519081526020016100fe565b34801561013f575f80fd5b50604051600881526020016100fe565b34801561015a575f80fd5b5061016e610169366004610577565b61036f565b60405190151581526020016100fe565b348015610189575f80fd5b5061008a61019836600461054a565b610378565b3480156101a8575f80fd5b506001546100ea906001600160a01b031681565b5f6101c985858585610354565b604080518281523460208201529192507f4980213ac16507b5b9871be5f2ed82e79faf22709ad58b3ef51fc3658cdd333c910160405180910390a1803410156102515760405162461bcd60e51b8152602060048201526015602482015274125b9cdd59999a58da595b9d08199959481c185a59605a1b60448201526064015b60405180910390fd5b5050505050565b6102606103f1565b47806102a75760405162461bcd60e51b81526020600482015260166024820152754e6f2062616c616e636520746f20776974686472617760501b6044820152606401610248565b5f826001600160a01b0316826040515f6040518083038185875af1925050503d805f81146102f0576040519150601f19603f3d011682016040523d82523d5f602084013e6102f5565b606091505b505090508061033c5760405162461bcd60e51b8152602060048201526013602482015272119959481d1c985b9cd9995c8819985a5b1959606a1b6044820152606401610248565b505050565b6103496103f1565b6103525f61044a565b565b5f3a81610364826202f9406105b6565b979650505050505050565b60015b92915050565b6103806103f1565b6001600160a01b0381166103e55760405162461bcd60e51b815260206004820152602660248201527f4f776e61626c653a206e6577206f776e657220697320746865207a65726f206160448201526564647265737360d01b6064820152608401610248565b6103ee8161044a565b50565b5f546001600160a01b031633146103525760405162461bcd60e51b815260206004820181905260248201527f4f776e61626c653a2063616c6c6572206973206e6f7420746865206f776e65726044820152606401610248565b5f80546001600160a01b038381166001600160a01b0319831681178455604051919092169283917f8be0079c531659141344cd1fd0a4f28419497f9722a3daafe3b4186f6b6457e09190a35050565b5f8083601f8401126104a9575f80fd5b50813567ffffffffffffffff8111156104c0575f80fd5b6020830191508360208285010111156104d7575f80fd5b9250929050565b5f805f80604085870312156104f1575f80fd5b843567ffffffffffffffff811115610507575f80fd5b61051387828801610499565b909550935050602085013567ffffffffffffffff811115610532575f80fd5b61053e87828801610499565b95989497509550505050565b5f6020828403121561055a575f80fd5b81356001600160a01b0381168114610570575f80fd5b9392505050565b5f8060208385031215610588575f80fd5b823567ffffffffffffffff81111561059e575f80fd5b6105aa85828601610499565b90969095509350505050565b808202811582820484141761037257634e487b7160e01b5f52601160045260245ffdfea2646970667358221220b84ce825bddb0df47730cba82d381a5d4fa44f84ed478dfe29d4391f3125be3564736f6c634300081a0033","linkReferences":{}},"methodIdentifiers":{"admin()":"f851a440","hookType()":"e445e7dd","owner()":"8da5cb5b","postDispatch(bytes,bytes)":"086011b9","quoteDispatch(bytes,bytes)":"aaccd230","renounceOwnership()":"715018a6","supportsMetadata(bytes)":"e5320bb9","transferOwnership(address)":"f2fde38b","withdrawFees(address)":"164e68de"},"id":0}