{"abi":[{"type":"fallback","stateMutability":"payable"},{"type":"receive","stateMutability":"payable"},{"type":"function","name":"feeFromUserWallet","inputs":[],"outputs":[{"name":"","type":"bool","internalType":"bool"}],"stateMutability":"view"},{"type":"function","name":"handle","inputs":[{"name":"_origin","type":"uint32","internalType":"uint32"},{"name":"_sender","type":"bytes32","internalType":"bytes32"},{"name":"_data","type":"bytes","internalType":"bytes"}],"outputs":[],"stateMutability":"payable"},{"type":"function","name":"interchainSecurityModule","inputs":[],"outputs":[{"name":"","type":"address","internalType":"contract IInterchainSecurityModule"}],"stateMutability":"view"},{"type":"function","name":"lastData","inputs":[],"outputs":[{"name":"","type":"bytes","internalType":"bytes"}],"stateMutability":"view"},{"type":"function","name":"lastSender","inputs":[],"outputs":[{"name":"","type":"bytes32","internalType":"bytes32"}],"stateMutability":"view"},{"type":"function","name":"owner","inputs":[],"outputs":[{"name":"","type":"address","internalType":"address"}],"stateMutability":"view"},{"type":"function","name":"paymentHook","inputs":[],"outputs":[{"name":"","type":"address","internalType":"address"}],"stateMutability":"view"},{"type":"function","name":"receivedData","inputs":[],"outputs":[{"name":"key","type":"string","internalType":"string"},{"name":"timestamp","type":"uint128","internalType":"uint128"},{"name":"value","type":"uint128","internalType":"uint128"}],"stateMutability":"view"},{"type":"function","name":"renounceOwnership","inputs":[],"outputs":[],"stateMutability":"nonpayable"},{"type":"function","name":"request","inputs":[{"name":"_mailbox","type":"address","internalType":"contract IMailbox"},{"name":"receiver","type":"address","internalType":"address"},{"name":"_destinationDomain","type":"uint32","internalType":"uint32"},{"name":"_messageBody","type":"bytes","internalType":"bytes"}],"outputs":[{"name":"messageId","type":"bytes32","internalType":"bytes32"}],"stateMutability":"payable"},{"type":"function","name":"setFeeSource","inputs":[{"name":"_feeFromUserWallet","type":"bool","internalType":"bool"}],"outputs":[],"stateMutability":"nonpayable"},{"type":"function","name":"setInterchainSecurityModule","inputs":[{"name":"_ism","type":"address","internalType":"address"}],"outputs":[],"stateMutability":"nonpayable"},{"type":"function","name":"setPaymentHook","inputs":[{"name":"_paymentHook","type":"address","internalType":"address"}],"outputs":[],"stateMutability":"nonpayable"},{"type":"function","name":"transferOwnership","inputs":[{"name":"newOwner","type":"address","internalType":"address"}],"outputs":[],"stateMutability":"nonpayable"},{"type":"function","name":"updates","inputs":[{"name":"","type":"string","internalType":"string"}],"outputs":[{"name":"key","type":"string","internalType":"string"},{"name":"timestamp","type":"uint128","internalType":"uint128"},{"name":"value","type":"uint128","internalType":"uint128"}],"stateMutability":"view"},{"type":"function","name":"walletFactory","inputs":[],"outputs":[{"name":"","type":"address","internalType":"address"}],"stateMutability":"view"},{"type":"event","name":"OwnershipTransferred","inputs":[{"name":"previousOwner","type":"address","indexed":true,"internalType":"address"},{"name":"newOwner","type":"address","indexed":true,"internalType":"address"}],"anonymous":false},{"type":"event","name":"ReceivedCall","inputs":[{"name":"caller","type":"address","indexed":true,"internalType":"address"},{"name":"amount","type":"uint256","indexed":false,"internalType":"uint256"},{"name":"message","type":"string","indexed":false,"internalType":"string"}],"anonymous":false},{"type":"event","name":"ReceivedMessage","inputs":[{"name":"key","type":"string","indexed":false,"internalType":"string"},{"name":"timestamp","type":"uint128","indexed":false,"internalType":"uint128"},{"name":"value","type":"uint128","indexed":false,"internalType":"uint128"}],"anonymous":false}],"bytecode":{"object":"0x6080604052348015600e575f80fd5b50601633601a565b6069565b5f80546001600160a01b038381166001600160a01b0319831681178455604051919092169283917f8be0079c531659141344cd1fd0a4f28419497f9722a3daafe3b4186f6b6457e09190a35050565b61105b806100765f395ff3fe6080604052600436106100e9575f3560e01c80638da5cb5b11610083578063c5c0369911610055578063c5c0369914610288578063de523cf3146102a7578063f2fde38b146102c6578063fb1273b0146102e557005b80638da5cb5b1461020f57806391423d501461022b578063a4b0e2a61461024a578063b60d6a591461026957005b806356d5d475116100bc57806356d5d475146101955780635ac69b42146101a8578063715018a6146101d857806387d40a70146101ec57005b80626e75ec146100f25780630e72cc061461011c5780631ef3e3f21461013b578063256fec881461017257005b366100f057005b005b3480156100fd575f80fd5b506101066102f8565b6040516101139190610a4d565b60405180910390f35b348015610127575f80fd5b506100f0610136366004610a7a565b610384565b348015610146575f80fd5b5060045461015a906001600160a01b031681565b6040516001600160a01b039091168152602001610113565b34801561017d575f80fd5b5061018760025481565b604051908152602001610113565b6100f06101a3366004610af2565b6103ae565b3480156101b3575f80fd5b506004546101c890600160a01b900460ff1681565b6040519015158152602001610113565b3480156101e3575f80fd5b506100f061073f565b3480156101f7575f80fd5b50610200610752565b60405161011393929190610b48565b34801561021a575f80fd5b505f546001600160a01b031661015a565b348015610236575f80fd5b506100f0610245366004610b7a565b6107fc565b348015610255575f80fd5b50610200610264366004610c38565b610822565b348015610274575f80fd5b506100f0610283366004610a7a565b610848565b348015610293575f80fd5b5060055461015a906001600160a01b031681565b3480156102b2575f80fd5b5060015461015a906001600160a01b031681565b3480156102d1575f80fd5b506100f06102e0366004610a7a565b610872565b6101876102f3366004610c72565b6108eb565b6003805461030590610ce7565b80601f016020809104026020016040519081016040528092919081815260200182805461033190610ce7565b801561037c5780601f106103535761010080835404028352916020019161037c565b820191905f5260205f20905b81548152906001019060200180831161035f57829003601f168201915b505050505081565b61038c610977565b600180546001600160a01b0319166001600160a01b0392909216919091179055565b5f80806103bd84860186610d35565b604080516060810182528481526001600160801b0380851660208301528316918101919091529295509093509150806006806103f98782610ddb565b5060208201516040928301516001600160801b03908116600160801b02911617600190910155518190600890610430908790610e96565b9081526040519081900360200190208151819061044d9082610ddb565b5060208201516040928301516001600160801b03908116600160801b02911617600190910155517fc5eff786654734aeb3b34606b6f2d7ae84ffa9028a448944b9eabcab2a17ab91906104a590869086908690610b48565b60405180910390a1600287905560036104bf868883610eac565b503a5f6104cf826202f940610f66565b6004549091505f906001600160a01b03166104ed846202f940610f66565b6040515f81818185875af1925050503d805f8114610526576040519150601f19603f3d011682016040523d82523d5f602084013e61052b565b606091505b50509050806105775760405162461bcd60e51b8152602060048201526013602482015272119959481d1c985b9cd9995c8819985a5b1959606a1b60448201526064015b60405180910390fd5b600454600160a01b900460ff16156106535760055460405163ae22c57d60e01b81526001600160a01b038c811660048301525f92169063ae22c57d90602401602060405180830381865afa1580156105d1573d5f803e3d5ffd5b505050506040513d601f19601f820116820180604052508101906105f59190610f8f565b60405163a9afaaaf60e01b8152600481018590529091506001600160a01b0382169063a9afaaaf906024015f604051808303815f87803b158015610637575f80fd5b505af1158015610649573d5f803e3d5ffd5b5050505050610732565b8147101561069a5760405162461bcd60e51b8152602060048201526014602482015273496e73756666696369656e742062616c616e636560601b604482015260640161056e565b6004546040515f916001600160a01b03169084908381818185875af1925050503d805f81146106e4576040519150601f19603f3d011682016040523d82523d5f602084013e6106e9565b606091505b50509050806107305760405162461bcd60e51b8152602060048201526013602482015272119959481d1c985b9cd9995c8819985a5b1959606a1b604482015260640161056e565b505b5050505050505050505050565b610747610977565b6107505f6109d0565b565b60068054819061076190610ce7565b80601f016020809104026020016040519081016040528092919081815260200182805461078d90610ce7565b80156107d85780601f106107af576101008083540402835291602001916107d8565b820191905f5260205f20905b8154815290600101906020018083116107bb57829003601f168201915b505050600190930154919250506001600160801b0380821691600160801b90041683565b610804610977565b60048054911515600160a01b0260ff60a01b19909216919091179055565b805160208183018101805160088252928201919093012091528054819061076190610ce7565b610850610977565b600480546001600160a01b0319166001600160a01b0392909216919091179055565b61087a610977565b6001600160a01b0381166108df5760405162461bcd60e51b815260206004820152602660248201527f4f776e61626c653a206e6577206f776e657220697320746865207a65726f206160448201526564647265737360d01b606482015260840161056e565b6108e8816109d0565b50565b600480546040516242e0f760e61b81525f926001600160a01b0392831692898116926310b83dc092349261092b928b92918d16918b918b918a9101610faa565b60206040518083038185885af1158015610947573d5f803e3d5ffd5b50505050506040513d601f19601f8201168201806040525081019061096c919061100e565b979650505050505050565b5f546001600160a01b031633146107505760405162461bcd60e51b815260206004820181905260248201527f4f776e61626c653a2063616c6c6572206973206e6f7420746865206f776e6572604482015260640161056e565b5f80546001600160a01b038381166001600160a01b0319831681178455604051919092169283917f8be0079c531659141344cd1fd0a4f28419497f9722a3daafe3b4186f6b6457e09190a35050565b5f81518084528060208401602086015e5f602082860101526020601f19601f83011685010191505092915050565b602081525f610a5f6020830184610a1f565b9392505050565b6001600160a01b03811681146108e8575f80fd5b5f60208284031215610a8a575f80fd5b8135610a5f81610a66565b803563ffffffff81168114610aa8575f80fd5b919050565b5f8083601f840112610abd575f80fd5b50813567ffffffffffffffff811115610ad4575f80fd5b602083019150836020828501011115610aeb575f80fd5b9250929050565b5f805f8060608587031215610b05575f80fd5b610b0e85610a95565b935060208501359250604085013567ffffffffffffffff811115610b30575f80fd5b610b3c87828801610aad565b95989497509550505050565b606081525f610b5a6060830186610a1f565b6001600160801b0394851660208401529290931660409091015292915050565b5f60208284031215610b8a575f80fd5b81358015158114610a5f575f80fd5b634e487b7160e01b5f52604160045260245ffd5b5f82601f830112610bbc575f80fd5b813567ffffffffffffffff811115610bd657610bd6610b99565b604051601f8201601f19908116603f0116810167ffffffffffffffff81118282101715610c0557610c05610b99565b604052818152838201602001851015610c1c575f80fd5b816020850160208301375f918101602001919091529392505050565b5f60208284031215610c48575f80fd5b813567ffffffffffffffff811115610c5e575f80fd5b610c6a84828501610bad565b949350505050565b5f805f805f60808688031215610c86575f80fd5b8535610c9181610a66565b94506020860135610ca181610a66565b9350610caf60408701610a95565b9250606086013567ffffffffffffffff811115610cca575f80fd5b610cd688828901610aad565b969995985093965092949392505050565b600181811c90821680610cfb57607f821691505b602082108103610d1957634e487b7160e01b5f52602260045260245ffd5b50919050565b80356001600160801b0381168114610aa8575f80fd5b5f805f60608486031215610d47575f80fd5b833567ffffffffffffffff811115610d5d575f80fd5b610d6986828701610bad565b935050610d7860208501610d1f565b9150610d8660408501610d1f565b90509250925092565b601f821115610dd657805f5260205f20601f840160051c81016020851015610db45750805b601f840160051c820191505b81811015610dd3575f8155600101610dc0565b50505b505050565b815167ffffffffffffffff811115610df557610df5610b99565b610e0981610e038454610ce7565b84610d8f565b6020601f821160018114610e3b575f8315610e245750848201515b5f19600385901b1c1916600184901b178455610dd3565b5f84815260208120601f198516915b82811015610e6a5787850151825560209485019460019092019101610e4a565b5084821015610e8757868401515f19600387901b60f8161c191681555b50505050600190811b01905550565b5f82518060208501845e5f920191825250919050565b67ffffffffffffffff831115610ec457610ec4610b99565b610ed883610ed28354610ce7565b83610d8f565b5f601f841160018114610f09575f8515610ef25750838201355b5f19600387901b1c1916600186901b178355610dd3565b5f83815260208120601f198716915b82811015610f385786850135825560209485019460019092019101610f18565b5086821015610f54575f1960f88860031b161c19848701351681555b505060018560011b0183555050505050565b8082028115828204841417610f8957634e487b7160e01b5f52601160045260245ffd5b92915050565b5f60208284031215610f9f575f80fd5b8151610a5f81610a66565b63ffffffff8616815284602082015260a060408201528260a0820152828460c08301375f81840160c0908101829052601f909401601f1916820182810385016060840152938401526001600160a01b039190911660809091015260e0019392505050565b5f6020828403121561101e575f80fd5b505191905056fea264697066735822122031b772e87401f2cc8f6d21b092b12d6469cfed6c13b504d7e37d2eb6575fdf0864736f6c634300081a0033","linkReferences":{}},"methodIdentifiers":{"feeFromUserWallet()":"5ac69b42","handle(uint32,bytes32,bytes)":"56d5d475","interchainSecurityModule()":"de523cf3","lastData()":"006e75ec","lastSender()":"256fec88","owner()":"8da5cb5b","paymentHook()":"1ef3e3f2","receivedData()":"87d40a70","renounceOwnership()":"715018a6","request(address,address,uint32,bytes)":"fb1273b0","setFeeSource(bool)":"91423d50","setInterchainSecurityModule(address)":"0e72cc06","setPaymentHook(address)":"b60d6a59","transferOwnership(address)":"f2fde38b","updates(string)":"a4b0e2a6","walletFactory()":"c5c03699"},"id":1}